{
  "contractName": "Transaction",
  "abi": [
    {
      "constant": true,
      "inputs": [],
      "name": "zip",
      "outputs": [
        {
          "name": "",
          "type": "string"
        }
      ],
      "payable": false,
      "stateMutability": "view",
      "type": "function"
    },
    {
      "constant": true,
      "inputs": [],
      "name": "seller",
      "outputs": [
        {
          "name": "",
          "type": "address"
        }
      ],
      "payable": false,
      "stateMutability": "view",
      "type": "function"
    },
    {
      "constant": true,
      "inputs": [],
      "name": "buyer",
      "outputs": [
        {
          "name": "",
          "type": "address"
        }
      ],
      "payable": false,
      "stateMutability": "view",
      "type": "function"
    },
    {
      "constant": true,
      "inputs": [],
      "name": "contractState",
      "outputs": [
        {
          "name": "",
          "type": "uint8"
        }
      ],
      "payable": false,
      "stateMutability": "view",
      "type": "function"
    },
    {
      "constant": true,
      "inputs": [],
      "name": "price",
      "outputs": [
        {
          "name": "",
          "type": "uint256"
        }
      ],
      "payable": false,
      "stateMutability": "view",
      "type": "function"
    },
    {
      "constant": true,
      "inputs": [],
      "name": "homeAddress",
      "outputs": [
        {
          "name": "",
          "type": "string"
        }
      ],
      "payable": false,
      "stateMutability": "view",
      "type": "function"
    },
    {
      "constant": true,
      "inputs": [],
      "name": "city",
      "outputs": [
        {
          "name": "",
          "type": "string"
        }
      ],
      "payable": false,
      "stateMutability": "view",
      "type": "function"
    },
    {
      "inputs": [
        {
          "name": "_address",
          "type": "string"
        },
        {
          "name": "_zip",
          "type": "string"
        },
        {
          "name": "_city",
          "type": "string"
        },
        {
          "name": "_price",
          "type": "uint256"
        },
        {
          "name": "_seller",
          "type": "address"
        },
        {
          "name": "_buyer",
          "type": "address"
        }
      ],
      "payable": false,
      "stateMutability": "nonpayable",
      "type": "constructor"
    },
    {
      "constant": false,
      "inputs": [],
      "name": "sellerSignContract",
      "outputs": [],
      "payable": false,
      "stateMutability": "nonpayable",
      "type": "function"
    },
    {
      "constant": false,
      "inputs": [],
      "name": "buyerSignContractAndPay",
      "outputs": [],
      "payable": true,
      "stateMutability": "payable",
      "type": "function"
    }
  ],
  "bytecode": "0x608060405260008060006101000a81548160ff021916908360038111156200002357fe5b02179055503480156200003557600080fd5b5060405162000cb038038062000cb0833981018060405260c08110156200005b57600080fd5b8101908080516401000000008111156200007457600080fd5b828101905060208101848111156200008b57600080fd5b8151856001820283011164010000000082111715620000a957600080fd5b50509291906020018051640100000000811115620000c657600080fd5b82810190506020810184811115620000dd57600080fd5b8151856001820283011164010000000082111715620000fb57600080fd5b505092919060200180516401000000008111156200011857600080fd5b828101905060208101848111156200012f57600080fd5b81518560018202830111640100000000821117156200014d57600080fd5b505092919060200180519060200190929190805190602001909291908051906020019092919050505081600060016101000a81548173ffffffffffffffffffffffffffffffffffffffff021916908373ffffffffffffffffffffffffffffffffffffffff16021790555080600160006101000a81548173ffffffffffffffffffffffffffffffffffffffff021916908373ffffffffffffffffffffffffffffffffffffffff16021790555085600290805190602001906200021092919062000256565b5084600390805190602001906200022992919062000256565b5083600490805190602001906200024292919062000256565b508260058190555050505050505062000305565b828054600181600116156101000203166002900490600052602060002090601f016020900481019282601f106200029957805160ff1916838001178555620002ca565b82800160010185558215620002ca579182015b82811115620002c9578251825591602001919060010190620002ac565b5b509050620002d99190620002dd565b5090565b6200030291905b80821115620002fe576000816000905550600101620002e4565b5090565b90565b61099b80620003156000396000f3fe6080604052600436106100855760003560e01c806385209ee01161005957806385209ee0146101df578063a035b1fe14610218578063b89cb64914610243578063f629ad301461024d578063fd0160fe146102dd57610085565b80629190551461008a57806308551a531461011a57806318be633f146101715780637150d8ae14610188575b600080fd5b34801561009657600080fd5b5061009f61036d565b6040518080602001828103825283818151815260200191508051906020019080838360005b838110156100df5780820151818401526020810190506100c4565b50505050905090810190601f16801561010c5780820380516001836020036101000a031916815260200191505b509250505060405180910390f35b34801561012657600080fd5b5061012f61040b565b604051808273ffffffffffffffffffffffffffffffffffffffff1673ffffffffffffffffffffffffffffffffffffffff16815260200191505060405180910390f35b34801561017d57600080fd5b50610186610431565b005b34801561019457600080fd5b5061019d6105b3565b604051808273ffffffffffffffffffffffffffffffffffffffff1673ffffffffffffffffffffffffffffffffffffffff16815260200191505060405180910390f35b3480156101eb57600080fd5b506101f46105d9565b6040518082600381111561020457fe5b60ff16815260200191505060405180910390f35b34801561022457600080fd5b5061022d6105eb565b6040518082815260200191505060405180910390f35b61024b6105f1565b005b34801561025957600080fd5b50610262610833565b6040518080602001828103825283818151815260200191508051906020019080838360005b838110156102a2578082015181840152602081019050610287565b50505050905090810190601f1680156102cf5780820380516001836020036101000a031916815260200191505b509250505060405180910390f35b3480156102e957600080fd5b506102f26108d1565b6040518080602001828103825283818151815260200191508051906020019080838360005b83811015610332578082015181840152602081019050610317565b50505050905090810190601f16801561035f5780820380516001836020036101000a031916815260200191505b509250505060405180910390f35b60038054600181600116156101000203166002900480601f0160208091040260200160405190810160405280929190818152602001828054600181600116156101000203166002900480156104035780601f106103d857610100808354040283529160200191610403565b820191906000526020600020905b8154815290600101906020018083116103e657829003601f168201915b505050505081565b600060019054906101000a900473ffffffffffffffffffffffffffffffffffffffff1681565b3373ffffffffffffffffffffffffffffffffffffffff16600060019054906101000a900473ffffffffffffffffffffffffffffffffffffffff1673ffffffffffffffffffffffffffffffffffffffff16146104f4576040517f08c379a000000000000000000000000000000000000000000000000000000000815260040180806020018281038252601d8152602001807f4f6e6c792073656c6c65722063616e207369676e20636f6e747261637400000081525060200191505060405180910390fd5b6000600381111561050157fe5b6000809054906101000a900460ff16600381111561051b57fe5b1461058e576040517f08c379a00000000000000000000000000000000000000000000000000000000081526004018080602001828103825260148152602001807f57726f6e6720636f6e747261637420737461746500000000000000000000000081525060200191505060405180910390fd5b60016000806101000a81548160ff021916908360038111156105ac57fe5b0217905550565b600160009054906101000a900473ffffffffffffffffffffffffffffffffffffffff1681565b6000809054906101000a900460ff1681565b60055481565b3373ffffffffffffffffffffffffffffffffffffffff16600160009054906101000a900473ffffffffffffffffffffffffffffffffffffffff1673ffffffffffffffffffffffffffffffffffffffff16146106b4576040517f08c379a000000000000000000000000000000000000000000000000000000000815260040180806020018281038252601c8152602001807f4f6e6c792062757965722063616e207369676e20636f6e74726163740000000081525060200191505060405180910390fd5b600160038111156106c157fe5b6000809054906101000a900460ff1660038111156106db57fe5b1461074e576040517f08c379a00000000000000000000000000000000000000000000000000000000081526004018080602001828103825260148152602001807f57726f6e6720636f6e747261637420737461746500000000000000000000000081525060200191505060405180910390fd5b6005543410156107c6576040517f08c379a00000000000000000000000000000000000000000000000000000000081526004018080602001828103825260178152602001807f4275796572206e656564206d6f726520666f722070617900000000000000000081525060200191505060405180910390fd5b600160009054906101000a900473ffffffffffffffffffffffffffffffffffffffff1673ffffffffffffffffffffffffffffffffffffffff166108fc6005549081150290604051600060405180830381858888f19350505050158015610830573d6000803e3d6000fd5b50565b60028054600181600116156101000203166002900480601f0160208091040260200160405190810160405280929190818152602001828054600181600116156101000203166002900480156108c95780601f1061089e576101008083540402835291602001916108c9565b820191906000526020600020905b8154815290600101906020018083116108ac57829003601f168201915b505050505081565b60048054600181600116156101000203166002900480601f0160208091040260200160405190810160405280929190818152602001828054600181600116156101000203166002900480156109675780601f1061093c57610100808354040283529160200191610967565b820191906000526020600020905b81548152906001019060200180831161094a57829003601f168201915b50505050508156fea165627a7a7230582081f4878785ae40ff322470ec3c1131e5db1c87a20368e7c369100d927361c0d30029",
  "source": "pragma solidity >=0.4.25 <0.6.0;\r\n\r\ncontract Transaction {\r\n    enum ContractState {\r\n        WaitingSellerSignature,\r\n        WaitingBuyerSignature,\r\n        Finalized,\r\n        Rejected\r\n    }\r\n    ContractState public contractState = ContractState.WaitingSellerSignature;\r\n\r\n    address public seller;\r\n    address payable public buyer;\r\n\r\n    string public homeAddress;\r\n    string public zip;\r\n    string public city;\r\n    uint256 public price;\r\n\r\n    constructor(\r\n        string memory _address,\r\n        string memory _zip,\r\n        string memory _city,\r\n        uint256 _price,\r\n        address _seller,\r\n        address payable _buyer\r\n    ) public {\r\n        seller = _seller;\r\n        buyer = _buyer;\r\n        homeAddress = _address;\r\n        zip = _zip;\r\n        city = _city;\r\n        price = _price;\r\n    }\r\n\r\n    function sellerSignContract() public {\r\n        require(seller == msg.sender, \"Only seller can sign contract\");\r\n        require(\r\n            contractState == ContractState.WaitingSellerSignature,\r\n            \"Wrong contract state\"\r\n        );\r\n        contractState = ContractState.WaitingBuyerSignature;\r\n    }\r\n\r\n    function buyerSignContractAndPay() public payable {\r\n        require(buyer == msg.sender, \"Only buyer can sign contract\");\r\n        require(\r\n            contractState == ContractState.WaitingBuyerSignature,\r\n            \"Wrong contract state\"\r\n        );\r\n        require(msg.value >= price, \"Buyer need more for pay\");\r\n        buyer.transfer(price);\r\n    }\r\n}\r\n",
  "sourcePath": "C:\\Users\\Matthias\\Desktop\\CryptoRevolSup\\contracts\\Transaction.sol",
  "compiler": {
    "name": "solc",
    "version": "0.5.8+commit.23d335f2.Emscripten.clang"
  },
  "schemaVersion": "3.0.16",
  "updatedAt": "2021-02-26T17:16:23.973Z",
  "devdoc": {
    "methods": {}
  },
  "userdoc": {
    "methods": {}
  }
}